{
  "_format": "hh-sol-artifact-1",
  "contractName": "PasswordManager",
  "sourceName": "contracts/passwordManager.sol",
  "abi": [
    {
      "inputs": [
        {
          "internalType": "string",
          "name": "_key",
          "type": "string"
        },
        {
          "internalType": "string",
          "name": "_value",
          "type": "string"
        }
      ],
      "name": "createNewKey",
      "outputs": [],
      "stateMutability": "nonpayable",
      "type": "function"
    },
    {
      "inputs": [
        {
          "internalType": "string",
          "name": "_key",
          "type": "string"
        }
      ],
      "name": "deleteKey",
      "outputs": [],
      "stateMutability": "nonpayable",
      "type": "function"
    },
    {
      "inputs": [],
      "name": "getMyPassword",
      "outputs": [
        {
          "components": [
            {
              "internalType": "string",
              "name": "key",
              "type": "string"
            },
            {
              "internalType": "string",
              "name": "value",
              "type": "string"
            }
          ],
          "internalType": "struct PasswordManager.password[]",
          "name": "",
          "type": "tuple[]"
        }
      ],
      "stateMutability": "view",
      "type": "function"
    },
    {
      "inputs": [
        {
          "internalType": "string",
          "name": "_key",
          "type": "string"
        },
        {
          "internalType": "string",
          "name": "_value",
          "type": "string"
        }
      ],
      "name": "updateKey",
      "outputs": [],
      "stateMutability": "nonpayable",
      "type": "function"
    }
  ],
  "bytecode": "0x608060405234801561001057600080fd5b50611416806100206000396000f3fe608060405234801561001057600080fd5b506004361061004c5760003560e01c80633350fe421461005157806357a1a3631461006d578063ba8690771461008b578063fbececac146100a7575b600080fd5b61006b60048036038101906100669190610ab3565b6100c3565b005b610075610363565b6040516100829190610c81565b60405180910390f35b6100a560048036038101906100a09190610ca3565b610522565b005b6100c160048036038101906100bc9190610ca3565b610724565b005b60008060003373ffffffffffffffffffffffffffffffffffffffff1673ffffffffffffffffffffffffffffffffffffffff16815260200190815260200160002080549050905060005b8181101561035d57826040516020016101259190610d57565b604051602081830303815290604052805190602001206000803373ffffffffffffffffffffffffffffffffffffffff1673ffffffffffffffffffffffffffffffffffffffff168152602001908152602001600020828154811061018b5761018a610d6e565b5b90600052602060002090600202016000016040516020016101ac9190610e95565b604051602081830303815290604052805190602001200361034a576000803373ffffffffffffffffffffffffffffffffffffffff1673ffffffffffffffffffffffffffffffffffffffff1681526020019081526020016000206001836102129190610ee5565b8154811061022357610222610d6e565b5b90600052602060002090600202016000803373ffffffffffffffffffffffffffffffffffffffff1673ffffffffffffffffffffffffffffffffffffffff168152602001908152602001600020828154811061028157610280610d6e565b5b9060005260206000209060020201600082018160000190816102a391906110c6565b50600182018160010190816102b891906110c6565b509050506000803373ffffffffffffffffffffffffffffffffffffffff1673ffffffffffffffffffffffffffffffffffffffff16815260200190815260200160002080548061030a576103096111ae565b5b60019003818190600052602060002090600202016000808201600061032f91906108fc565b60018201600061033f91906108fc565b505090555050610360565b8080610355906111dd565b91505061010c565b50505b50565b60606000803373ffffffffffffffffffffffffffffffffffffffff1673ffffffffffffffffffffffffffffffffffffffff168152602001908152602001600020805480602002602001604051908101604052809291908181526020016000905b8282101561051957838290600052602060002090600202016040518060400160405290816000820180546103f690610dcc565b80601f016020809104026020016040519081016040528092919081815260200182805461042290610dcc565b801561046f5780601f106104445761010080835404028352916020019161046f565b820191906000526020600020905b81548152906001019060200180831161045257829003601f168201915b5050505050815260200160018201805461048890610dcc565b80601f01602080910402602001604051908101604052809291908181526020018280546104b490610dcc565b80156105015780601f106104d657610100808354040283529160200191610501565b820191906000526020600020905b8154815290600101906020018083116104e457829003601f168201915b505050505081525050815260200190600101906103c3565b50505050905090565b60008060003373ffffffffffffffffffffffffffffffffffffffff1673ffffffffffffffffffffffffffffffffffffffff16815260200190815260200160002080549050905060005b8181101561067457836040516020016105849190610d57565b604051602081830303815290604052805190602001206000803373ffffffffffffffffffffffffffffffffffffffff1673ffffffffffffffffffffffffffffffffffffffff16815260200190815260200160002082815481106105ea576105e9610d6e565b5b906000526020600020906002020160000160405160200161060b9190610e95565b6040516020818303038152906040528051906020012003610661576040517f08c379a000000000000000000000000000000000000000000000000000000000815260040161065890611282565b60405180910390fd5b808061066c906111dd565b91505061056b565b506000803373ffffffffffffffffffffffffffffffffffffffff1673ffffffffffffffffffffffffffffffffffffffff1681526020019081526020016000206040518060400160405280858152602001848152509080600181540180825580915050600190039060005260206000209060020201600090919091909150600082015181600001908161070691906112a2565b50602082015181600101908161071c91906112a2565b505050505050565b60008060003373ffffffffffffffffffffffffffffffffffffffff1673ffffffffffffffffffffffffffffffffffffffff16815260200190815260200160002080549050905060005b818110156108b157836040516020016107869190610d57565b604051602081830303815290604052805190602001206000803373ffffffffffffffffffffffffffffffffffffffff1673ffffffffffffffffffffffffffffffffffffffff16815260200190815260200160002082815481106107ec576107eb610d6e565b5b906000526020600020906002020160000160405160200161080d9190610e95565b604051602081830303815290604052805190602001200361089e57826000803373ffffffffffffffffffffffffffffffffffffffff1673ffffffffffffffffffffffffffffffffffffffff168152602001908152602001600020828154811061087957610878610d6e565b5b9060005260206000209060020201600101908161089691906112a2565b5050506108f8565b80806108a9906111dd565b91505061076d565b5060006001146108f6576040517f08c379a00000000000000000000000000000000000000000000000000000000081526004016108ed906113c0565b60405180910390fd5b505b5050565b50805461090890610dcc565b6000825580601f1061091a5750610939565b601f016020900490600052602060002090810190610938919061093c565b5b50565b5b8082111561095557600081600090555060010161093d565b5090565b6000604051905090565b600080fd5b600080fd5b600080fd5b600080fd5b6000601f19601f8301169050919050565b7f4e487b7100000000000000000000000000000000000000000000000000000000600052604160045260246000fd5b6109c082610977565b810181811067ffffffffffffffff821117156109df576109de610988565b5b80604052505050565b60006109f2610959565b90506109fe82826109b7565b919050565b600067ffffffffffffffff821115610a1e57610a1d610988565b5b610a2782610977565b9050602081019050919050565b82818337600083830152505050565b6000610a56610a5184610a03565b6109e8565b905082815260208101848484011115610a7257610a71610972565b5b610a7d848285610a34565b509392505050565b600082601f830112610a9a57610a9961096d565b5b8135610aaa848260208601610a43565b91505092915050565b600060208284031215610ac957610ac8610963565b5b600082013567ffffffffffffffff811115610ae757610ae6610968565b5b610af384828501610a85565b91505092915050565b600081519050919050565b600082825260208201905092915050565b6000819050602082019050919050565b600081519050919050565b600082825260208201905092915050565b60005b83811015610b62578082015181840152602081019050610b47565b60008484015250505050565b6000610b7982610b28565b610b838185610b33565b9350610b93818560208601610b44565b610b9c81610977565b840191505092915050565b60006040830160008301518482036000860152610bc48282610b6e565b91505060208301518482036020860152610bde8282610b6e565b9150508091505092915050565b6000610bf78383610ba7565b905092915050565b6000602082019050919050565b6000610c1782610afc565b610c218185610b07565b935083602082028501610c3385610b18565b8060005b85811015610c6f5784840389528151610c508582610beb565b9450610c5b83610bff565b925060208a01995050600181019050610c37565b50829750879550505050505092915050565b60006020820190508181036000830152610c9b8184610c0c565b905092915050565b60008060408385031215610cba57610cb9610963565b5b600083013567ffffffffffffffff811115610cd857610cd7610968565b5b610ce485828601610a85565b925050602083013567ffffffffffffffff811115610d0557610d04610968565b5b610d1185828601610a85565b9150509250929050565b600081905092915050565b6000610d3182610b28565b610d3b8185610d1b565b9350610d4b818560208601610b44565b80840191505092915050565b6000610d638284610d26565b915081905092915050565b7f4e487b7100000000000000000000000000000000000000000000000000000000600052603260045260246000fd5b7f4e487b7100000000000000000000000000000000000000000000000000000000600052602260045260246000fd5b60006002820490506001821680610de457607f821691505b602082108103610df757610df6610d9d565b5b50919050565b60008190508160005260206000209050919050565b60008154610e1f81610dcc565b610e298186610d1b565b94506001821660008114610e445760018114610e5957610e8c565b60ff1983168652811515820286019350610e8c565b610e6285610dfd565b60005b83811015610e8457815481890152600182019150602081019050610e65565b838801955050505b50505092915050565b6000610ea18284610e12565b915081905092915050565b6000819050919050565b7f4e487b7100000000000000000000000000000000000000000000000000000000600052601160045260246000fd5b6000610ef082610eac565b9150610efb83610eac565b9250828203905081811115610f1357610f12610eb6565b5b92915050565b600081549050610f2881610dcc565b9050919050565b60006020601f8301049050919050565b600082821b905092915050565b600060088302610f7c7fffffffffffffffffffffffffffffffffffffffffffffffffffffffffffffffff82610f3f565b610f868683610f3f565b95508019841693508086168417925050509392505050565b6000819050919050565b6000610fc3610fbe610fb984610eac565b610f9e565b610eac565b9050919050565b6000819050919050565b610fdd83610fa8565b610ff1610fe982610fca565b848454610f4c565b825550505050565b600090565b611006610ff9565b611011818484610fd4565b505050565b5b818110156110355761102a600082610ffe565b600181019050611017565b5050565b601f82111561107a5761104b81610dfd565b61105484610f2f565b81016020851015611063578190505b61107761106f85610f2f565b830182611016565b50505b505050565b600082821c905092915050565b600061109d6000198460080261107f565b1980831691505092915050565b60006110b6838361108c565b9150826002028217905092915050565b8181036110d45750506111ac565b6110dd82610f19565b67ffffffffffffffff8111156110f6576110f5610988565b5b6111008254610dcc565b61110b828285611039565b6000601f83116001811461113a5760008415611128578287015490505b61113285826110aa565b8655506111a5565b601f19841661114887610dfd565b965061115386610dfd565b60005b8281101561117b57848901548255600182019150600185019450602081019050611156565b868310156111985784890154611194601f89168261108c565b8355505b6001600288020188555050505b5050505050505b565b7f4e487b7100000000000000000000000000000000000000000000000000000000600052603160045260246000fd5b60006111e882610eac565b91507fffffffffffffffffffffffffffffffffffffffffffffffffffffffffffffffff820361121a57611219610eb6565b5b600182019050919050565b600082825260208201905092915050565b7f4b657920616c72656164792070726573656e7400000000000000000000000000600082015250565b600061126c601383611225565b915061127782611236565b602082019050919050565b6000602082019050818103600083015261129b8161125f565b9050919050565b6112ab82610b28565b67ffffffffffffffff8111156112c4576112c3610988565b5b6112ce8254610dcc565b6112d9828285611039565b600060209050601f83116001811461130c57600084156112fa578287015190505b61130485826110aa565b86555061136c565b601f19841661131a86610dfd565b60005b828110156113425784890151825560018201915060208501945060208101905061131d565b8683101561135f578489015161135b601f89168261108c565b8355505b6001600288020188555050505b505050505050565b7f4e6f206b657920666f756e640000000000000000000000000000000000000000600082015250565b60006113aa600c83611225565b91506113b582611374565b602082019050919050565b600060208201905081810360008301526113d98161139d565b905091905056fea264697066735822122049e23500e154808f502216ae4b16057440d49b9bd2978786683ecafc4497680964736f6c63430008110033",
  "linkReferences": {},
  "deployedLinkReferences": {}
}