{"contracts/passwordManager.sol":{"PasswordManager":{"abi":[{"inputs":[{"internalType":"string","name":"_key","type":"string"},{"internalType":"string","name":"_value","type":"string"}],"name":"createNewKey","outputs":[],"stateMutability":"nonpayable","type":"function"},{"inputs":[{"internalType":"string","name":"_key","type":"string"}],"name":"deleteKey","outputs":[],"stateMutability":"nonpayable","type":"function"},{"inputs":[],"name":"getMyPassword","outputs":[{"components":[{"internalType":"string","name":"key","type":"string"},{"internalType":"string","name":"value","type":"string"}],"internalType":"struct PasswordManager.password[]","name":"","type":"tuple[]"}],"stateMutability":"view","type":"function"},{"inputs":[{"internalType":"string","name":"_key","type":"string"},{"internalType":"string","name":"_value","type":"string"}],"name":"updateKey","outputs":[],"stateMutability":"nonpayable","type":"function"}],"evm":{"bytecode":{"linkReferences":{},"object":"608060405234801561001057600080fd5b50611416806100206000396000f3fe608060405234801561001057600080fd5b506004361061004c5760003560e01c80633350fe421461005157806357a1a3631461006d578063ba8690771461008b578063fbececac146100a7575b600080fd5b61006b60048036038101906100669190610ab3565b6100c3565b005b610075610363565b6040516100829190610c81565b60405180910390f35b6100a560048036038101906100a09190610ca3565b610522565b005b6100c160048036038101906100bc9190610ca3565b610724565b005b60008060003373ffffffffffffffffffffffffffffffffffffffff1673ffffffffffffffffffffffffffffffffffffffff16815260200190815260200160002080549050905060005b8181101561035d57826040516020016101259190610d57565b604051602081830303815290604052805190602001206000803373ffffffffffffffffffffffffffffffffffffffff1673ffffffffffffffffffffffffffffffffffffffff168152602001908152602001600020828154811061018b5761018a610d6e565b5b90600052602060002090600202016000016040516020016101ac9190610e95565b604051602081830303815290604052805190602001200361034a576000803373ffffffffffffffffffffffffffffffffffffffff1673ffffffffffffffffffffffffffffffffffffffff1681526020019081526020016000206001836102129190610ee5565b8154811061022357610222610d6e565b5b90600052602060002090600202016000803373ffffffffffffffffffffffffffffffffffffffff1673ffffffffffffffffffffffffffffffffffffffff168152602001908152602001600020828154811061028157610280610d6e565b5b9060005260206000209060020201600082018160000190816102a391906110c6565b50600182018160010190816102b891906110c6565b509050506000803373ffffffffffffffffffffffffffffffffffffffff1673ffffffffffffffffffffffffffffffffffffffff16815260200190815260200160002080548061030a576103096111ae565b5b60019003818190600052602060002090600202016000808201600061032f91906108fc565b60018201600061033f91906108fc565b505090555050610360565b8080610355906111dd565b91505061010c565b50505b50565b60606000803373ffffffffffffffffffffffffffffffffffffffff1673ffffffffffffffffffffffffffffffffffffffff168152602001908152602001600020805480602002602001604051908101604052809291908181526020016000905b8282101561051957838290600052602060002090600202016040518060400160405290816000820180546103f690610dcc565b80601f016020809104026020016040519081016040528092919081815260200182805461042290610dcc565b801561046f5780601f106104445761010080835404028352916020019161046f565b820191906000526020600020905b81548152906001019060200180831161045257829003601f168201915b5050505050815260200160018201805461048890610dcc565b80601f01602080910402602001604051908101604052809291908181526020018280546104b490610dcc565b80156105015780601f106104d657610100808354040283529160200191610501565b820191906000526020600020905b8154815290600101906020018083116104e457829003601f168201915b505050505081525050815260200190600101906103c3565b50505050905090565b60008060003373ffffffffffffffffffffffffffffffffffffffff1673ffffffffffffffffffffffffffffffffffffffff16815260200190815260200160002080549050905060005b8181101561067457836040516020016105849190610d57565b604051602081830303815290604052805190602001206000803373ffffffffffffffffffffffffffffffffffffffff1673ffffffffffffffffffffffffffffffffffffffff16815260200190815260200160002082815481106105ea576105e9610d6e565b5b906000526020600020906002020160000160405160200161060b9190610e95565b6040516020818303038152906040528051906020012003610661576040517f08c379a000000000000000000000000000000000000000000000000000000000815260040161065890611282565b60405180910390fd5b808061066c906111dd565b91505061056b565b506000803373ffffffffffffffffffffffffffffffffffffffff1673ffffffffffffffffffffffffffffffffffffffff1681526020019081526020016000206040518060400160405280858152602001848152509080600181540180825580915050600190039060005260206000209060020201600090919091909150600082015181600001908161070691906112a2565b50602082015181600101908161071c91906112a2565b505050505050565b60008060003373ffffffffffffffffffffffffffffffffffffffff1673ffffffffffffffffffffffffffffffffffffffff16815260200190815260200160002080549050905060005b818110156108b157836040516020016107869190610d57565b604051602081830303815290604052805190602001206000803373ffffffffffffffffffffffffffffffffffffffff1673ffffffffffffffffffffffffffffffffffffffff16815260200190815260200160002082815481106107ec576107eb610d6e565b5b906000526020600020906002020160000160405160200161080d9190610e95565b604051602081830303815290604052805190602001200361089e57826000803373ffffffffffffffffffffffffffffffffffffffff1673ffffffffffffffffffffffffffffffffffffffff168152602001908152602001600020828154811061087957610878610d6e565b5b9060005260206000209060020201600101908161089691906112a2565b5050506108f8565b80806108a9906111dd565b91505061076d565b5060006001146108f6576040517f08c379a00000000000000000000000000000000000000000000000000000000081526004016108ed906113c0565b60405180910390fd5b505b5050565b50805461090890610dcc565b6000825580601f1061091a5750610939565b601f016020900490600052602060002090810190610938919061093c565b5b50565b5b8082111561095557600081600090555060010161093d565b5090565b6000604051905090565b600080fd5b600080fd5b600080fd5b600080fd5b6000601f19601f8301169050919050565b7f4e487b7100000000000000000000000000000000000000000000000000000000600052604160045260246000fd5b6109c082610977565b810181811067ffffffffffffffff821117156109df576109de610988565b5b80604052505050565b60006109f2610959565b90506109fe82826109b7565b919050565b600067ffffffffffffffff821115610a1e57610a1d610988565b5b610a2782610977565b9050602081019050919050565b82818337600083830152505050565b6000610a56610a5184610a03565b6109e8565b905082815260208101848484011115610a7257610a71610972565b5b610a7d848285610a34565b509392505050565b600082601f830112610a9a57610a9961096d565b5b8135610aaa848260208601610a43565b91505092915050565b600060208284031215610ac957610ac8610963565b5b600082013567ffffffffffffffff811115610ae757610ae6610968565b5b610af384828501610a85565b91505092915050565b600081519050919050565b600082825260208201905092915050565b6000819050602082019050919050565b600081519050919050565b600082825260208201905092915050565b60005b83811015610b62578082015181840152602081019050610b47565b60008484015250505050565b6000610b7982610b28565b610b838185610b33565b9350610b93818560208601610b44565b610b9c81610977565b840191505092915050565b60006040830160008301518482036000860152610bc48282610b6e565b91505060208301518482036020860152610bde8282610b6e565b9150508091505092915050565b6000610bf78383610ba7565b905092915050565b6000602082019050919050565b6000610c1782610afc565b610c218185610b07565b935083602082028501610c3385610b18565b8060005b85811015610c6f5784840389528151610c508582610beb565b9450610c5b83610bff565b925060208a01995050600181019050610c37565b50829750879550505050505092915050565b60006020820190508181036000830152610c9b8184610c0c565b905092915050565b60008060408385031215610cba57610cb9610963565b5b600083013567ffffffffffffffff811115610cd857610cd7610968565b5b610ce485828601610a85565b925050602083013567ffffffffffffffff811115610d0557610d04610968565b5b610d1185828601610a85565b9150509250929050565b600081905092915050565b6000610d3182610b28565b610d3b8185610d1b565b9350610d4b818560208601610b44565b80840191505092915050565b6000610d638284610d26565b915081905092915050565b7f4e487b7100000000000000000000000000000000000000000000000000000000600052603260045260246000fd5b7f4e487b7100000000000000000000000000000000000000000000000000000000600052602260045260246000fd5b60006002820490506001821680610de457607f821691505b602082108103610df757610df6610d9d565b5b50919050565b60008190508160005260206000209050919050565b60008154610e1f81610dcc565b610e298186610d1b565b94506001821660008114610e445760018114610e5957610e8c565b60ff1983168652811515820286019350610e8c565b610e6285610dfd565b60005b83811015610e8457815481890152600182019150602081019050610e65565b838801955050505b50505092915050565b6000610ea18284610e12565b915081905092915050565b6000819050919050565b7f4e487b7100000000000000000000000000000000000000000000000000000000600052601160045260246000fd5b6000610ef082610eac565b9150610efb83610eac565b9250828203905081811115610f1357610f12610eb6565b5b92915050565b600081549050610f2881610dcc565b9050919050565b60006020601f8301049050919050565b600082821b905092915050565b600060088302610f7c7fffffffffffffffffffffffffffffffffffffffffffffffffffffffffffffffff82610f3f565b610f868683610f3f565b95508019841693508086168417925050509392505050565b6000819050919050565b6000610fc3610fbe610fb984610eac565b610f9e565b610eac565b9050919050565b6000819050919050565b610fdd83610fa8565b610ff1610fe982610fca565b848454610f4c565b825550505050565b600090565b611006610ff9565b611011818484610fd4565b505050565b5b818110156110355761102a600082610ffe565b600181019050611017565b5050565b601f82111561107a5761104b81610dfd565b61105484610f2f565b81016020851015611063578190505b61107761106f85610f2f565b830182611016565b50505b505050565b600082821c905092915050565b600061109d6000198460080261107f565b1980831691505092915050565b60006110b6838361108c565b9150826002028217905092915050565b8181036110d45750506111ac565b6110dd82610f19565b67ffffffffffffffff8111156110f6576110f5610988565b5b6111008254610dcc565b61110b828285611039565b6000601f83116001811461113a5760008415611128578287015490505b61113285826110aa565b8655506111a5565b601f19841661114887610dfd565b965061115386610dfd565b60005b8281101561117b57848901548255600182019150600185019450602081019050611156565b868310156111985784890154611194601f89168261108c565b8355505b6001600288020188555050505b5050505050505b565b7f4e487b7100000000000000000000000000000000000000000000000000000000600052603160045260246000fd5b60006111e882610eac565b91507fffffffffffffffffffffffffffffffffffffffffffffffffffffffffffffffff820361121a57611219610eb6565b5b600182019050919050565b600082825260208201905092915050565b7f4b657920616c72656164792070726573656e7400000000000000000000000000600082015250565b600061126c601383611225565b915061127782611236565b602082019050919050565b6000602082019050818103600083015261129b8161125f565b9050919050565b6112ab82610b28565b67ffffffffffffffff8111156112c4576112c3610988565b5b6112ce8254610dcc565b6112d9828285611039565b600060209050601f83116001811461130c57600084156112fa578287015190505b61130485826110aa565b86555061136c565b601f19841661131a86610dfd565b60005b828110156113425784890151825560018201915060208501945060208101905061131d565b8683101561135f578489015161135b601f89168261108c565b8355505b6001600288020188555050505b505050505050565b7f4e6f206b657920666f756e640000000000000000000000000000000000000000600082015250565b60006113aa600c83611225565b91506113b582611374565b602082019050919050565b600060208201905081810360008301526113d98161139d565b905091905056fea264697066735822122049e23500e154808f502216ae4b16057440d49b9bd2978786683ecafc4497680964736f6c63430008110033","opcodes":"PUSH1 0x80 PUSH1 0x40 MSTORE CALLVALUE DUP1 ISZERO PUSH2 0x10 JUMPI PUSH1 0x0 DUP1 REVERT JUMPDEST POP PUSH2 0x1416 DUP1 PUSH2 0x20 PUSH1 0x0 CODECOPY PUSH1 0x0 RETURN INVALID PUSH1 0x80 PUSH1 0x40 MSTORE CALLVALUE DUP1 ISZERO PUSH2 0x10 JUMPI PUSH1 0x0 DUP1 REVERT JUMPDEST POP PUSH1 0x4 CALLDATASIZE LT PUSH2 0x4C JUMPI PUSH1 0x0 CALLDATALOAD PUSH1 0xE0 SHR DUP1 PUSH4 0x3350FE42 EQ PUSH2 0x51 JUMPI DUP1 PUSH4 0x57A1A363 EQ PUSH2 0x6D JUMPI DUP1 PUSH4 0xBA869077 EQ PUSH2 0x8B JUMPI DUP1 PUSH4 0xFBECECAC EQ PUSH2 0xA7 JUMPI JUMPDEST PUSH1 0x0 DUP1 REVERT JUMPDEST PUSH2 0x6B PUSH1 0x4 DUP1 CALLDATASIZE SUB DUP2 ADD SWAP1 PUSH2 0x66 SWAP2 SWAP1 PUSH2 0xAB3 JUMP JUMPDEST PUSH2 0xC3 JUMP JUMPDEST STOP JUMPDEST PUSH2 0x75 PUSH2 0x363 JUMP JUMPDEST PUSH1 0x40 MLOAD PUSH2 0x82 SWAP2 SWAP1 PUSH2 0xC81 JUMP JUMPDEST PUSH1 0x40 MLOAD DUP1 SWAP2 SUB SWAP1 RETURN JUMPDEST PUSH2 0xA5 PUSH1 0x4 DUP1 CALLDATASIZE SUB DUP2 ADD SWAP1 PUSH2 0xA0 SWAP2 SWAP1 PUSH2 0xCA3 JUMP JUMPDEST PUSH2 0x522 JUMP JUMPDEST STOP JUMPDEST PUSH2 0xC1 PUSH1 0x4 DUP1 CALLDATASIZE SUB DUP2 ADD SWAP1 PUSH2 0xBC SWAP2 SWAP1 PUSH2 0xCA3 JUMP JUMPDEST PUSH2 0x724 JUMP JUMPDEST STOP JUMPDEST PUSH1 0x0 DUP1 PUSH1 0x0 CALLER PUSH20 0xFFFFFFFFFFFFFFFFFFFFFFFFFFFFFFFFFFFFFFFF AND PUSH20 0xFFFFFFFFFFFFFFFFFFFFFFFFFFFFFFFFFFFFFFFF AND DUP2 MSTORE PUSH1 0x20 ADD SWAP1 DUP2 MSTORE PUSH1 0x20 ADD PUSH1 0x0 KECCAK256 DUP1 SLOAD SWAP1 POP SWAP1 POP PUSH1 0x0 JUMPDEST DUP2 DUP2 LT ISZERO PUSH2 0x35D JUMPI DUP3 PUSH1 0x40 MLOAD PUSH1 0x20 ADD PUSH2 0x125 SWAP2 SWAP1 PUSH2 0xD57 JUMP JUMPDEST PUSH1 0x40 MLOAD PUSH1 0x20 DUP2 DUP4 SUB SUB DUP2 MSTORE SWAP1 PUSH1 0x40 MSTORE DUP1 MLOAD SWAP1 PUSH1 0x20 ADD KECCAK256 PUSH1 0x0 DUP1 CALLER PUSH20 0xFFFFFFFFFFFFFFFFFFFFFFFFFFFFFFFFFFFFFFFF AND PUSH20 0xFFFFFFFFFFFFFFFFFFFFFFFFFFFFFFFFFFFFFFFF AND DUP2 MSTORE PUSH1 0x20 ADD SWAP1 DUP2 MSTORE PUSH1 0x20 ADD PUSH1 0x0 KECCAK256 DUP3 DUP2 SLOAD DUP2 LT PUSH2 0x18B JUMPI PUSH2 0x18A PUSH2 0xD6E JUMP JUMPDEST JUMPDEST SWAP1 PUSH1 0x0 MSTORE PUSH1 0x20 PUSH1 0x0 KECCAK256 SWAP1 PUSH1 0x2 MUL ADD PUSH1 0x0 ADD PUSH1 0x40 MLOAD PUSH1 0x20 ADD PUSH2 0x1AC SWAP2 SWAP1 PUSH2 0xE95 JUMP JUMPDEST PUSH1 0x40 MLOAD PUSH1 0x20 DUP2 DUP4 SUB SUB DUP2 MSTORE SWAP1 PUSH1 0x40 MSTORE DUP1 MLOAD SWAP1 PUSH1 0x20 ADD KECCAK256 SUB PUSH2 0x34A JUMPI PUSH1 0x0 DUP1 CALLER PUSH20 0xFFFFFFFFFFFFFFFFFFFFFFFFFFFFFFFFFFFFFFFF AND PUSH20 0xFFFFFFFFFFFFFFFFFFFFFFFFFFFFFFFFFFFFFFFF AND DUP2 MSTORE PUSH1 0x20 ADD SWAP1 DUP2 MSTORE PUSH1 0x20 ADD PUSH1 0x0 KECCAK256 PUSH1 0x1 DUP4 PUSH2 0x212 SWAP2 SWAP1 PUSH2 0xEE5 JUMP JUMPDEST DUP2 SLOAD DUP2 LT PUSH2 0x223 JUMPI PUSH2 0x222 PUSH2 0xD6E JUMP JUMPDEST JUMPDEST SWAP1 PUSH1 0x0 MSTORE PUSH1 0x20 PUSH1 0x0 KECCAK256 SWAP1 PUSH1 0x2 MUL ADD PUSH1 0x0 DUP1 CALLER PUSH20 0xFFFFFFFFFFFFFFFFFFFFFFFFFFFFFFFFFFFFFFFF AND PUSH20 0xFFFFFFFFFFFFFFFFFFFFFFFFFFFFFFFFFFFFFFFF AND DUP2 MSTORE PUSH1 0x20 ADD SWAP1 DUP2 MSTORE PUSH1 0x20 ADD PUSH1 0x0 KECCAK256 DUP3 DUP2 SLOAD DUP2 LT PUSH2 0x281 JUMPI PUSH2 0x280 PUSH2 0xD6E JUMP JUMPDEST JUMPDEST SWAP1 PUSH1 0x0 MSTORE PUSH1 0x20 PUSH1 0x0 KECCAK256 SWAP1 PUSH1 0x2 MUL ADD PUSH1 0x0 DUP3 ADD DUP2 PUSH1 0x0 ADD SWAP1 DUP2 PUSH2 0x2A3 SWAP2 SWAP1 PUSH2 0x10C6 JUMP JUMPDEST POP PUSH1 0x1 DUP3 ADD DUP2 PUSH1 0x1 ADD SWAP1 DUP2 PUSH2 0x2B8 SWAP2 SWAP1 PUSH2 0x10C6 JUMP JUMPDEST POP SWAP1 POP POP PUSH1 0x0 DUP1 CALLER PUSH20 0xFFFFFFFFFFFFFFFFFFFFFFFFFFFFFFFFFFFFFFFF AND PUSH20 0xFFFFFFFFFFFFFFFFFFFFFFFFFFFFFFFFFFFFFFFF AND DUP2 MSTORE PUSH1 0x20 ADD SWAP1 DUP2 MSTORE PUSH1 0x20 ADD PUSH1 0x0 KECCAK256 DUP1 SLOAD DUP1 PUSH2 0x30A JUMPI PUSH2 0x309 PUSH2 0x11AE JUMP JUMPDEST JUMPDEST PUSH1 0x1 SWAP1 SUB DUP2 DUP2 SWAP1 PUSH1 0x0 MSTORE PUSH1 0x20 PUSH1 0x0 KECCAK256 SWAP1 PUSH1 0x2 MUL ADD PUSH1 0x0 DUP1 DUP3 ADD PUSH1 0x0 PUSH2 0x32F SWAP2 SWAP1 PUSH2 0x8FC JUMP JUMPDEST PUSH1 0x1 DUP3 ADD PUSH1 0x0 PUSH2 0x33F SWAP2 SWAP1 PUSH2 0x8FC JUMP JUMPDEST POP POP SWAP1 SSTORE POP POP PUSH2 0x360 JUMP JUMPDEST DUP1 DUP1 PUSH2 0x355 SWAP1 PUSH2 0x11DD JUMP JUMPDEST SWAP2 POP POP PUSH2 0x10C JUMP JUMPDEST POP POP JUMPDEST POP JUMP JUMPDEST PUSH1 0x60 PUSH1 0x0 DUP1 CALLER PUSH20 0xFFFFFFFFFFFFFFFFFFFFFFFFFFFFFFFFFFFFFFFF AND PUSH20 0xFFFFFFFFFFFFFFFFFFFFFFFFFFFFFFFFFFFFFFFF AND DUP2 MSTORE PUSH1 0x20 ADD SWAP1 DUP2 MSTORE PUSH1 0x20 ADD PUSH1 0x0 KECCAK256 DUP1 SLOAD DUP1 PUSH1 0x20 MUL PUSH1 0x20 ADD PUSH1 0x40 MLOAD SWAP1 DUP2 ADD PUSH1 0x40 MSTORE DUP1 SWAP3 SWAP2 SWAP1 DUP2 DUP2 MSTORE PUSH1 0x20 ADD PUSH1 0x0 SWAP1 JUMPDEST DUP3 DUP3 LT ISZERO PUSH2 0x519 JUMPI DUP4 DUP3 SWAP1 PUSH1 0x0 MSTORE PUSH1 0x20 PUSH1 0x0 KECCAK256 SWAP1 PUSH1 0x2 MUL ADD PUSH1 0x40 MLOAD DUP1 PUSH1 0x40 ADD PUSH1 0x40 MSTORE SWAP1 DUP2 PUSH1 0x0 DUP3 ADD DUP1 SLOAD PUSH2 0x3F6 SWAP1 PUSH2 0xDCC JUMP JUMPDEST DUP1 PUSH1 0x1F ADD PUSH1 0x20 DUP1 SWAP2 DIV MUL PUSH1 0x20 ADD PUSH1 0x40 MLOAD SWAP1 DUP2 ADD PUSH1 0x40 MSTORE DUP1 SWAP3 SWAP2 SWAP1 DUP2 DUP2 MSTORE PUSH1 0x20 ADD DUP3 DUP1 SLOAD PUSH2 0x422 SWAP1 PUSH2 0xDCC JUMP JUMPDEST DUP1 ISZERO PUSH2 0x46F JUMPI DUP1 PUSH1 0x1F LT PUSH2 0x444 JUMPI PUSH2 0x100 DUP1 DUP4 SLOAD DIV MUL DUP4 MSTORE SWAP2 PUSH1 0x20 ADD SWAP2 PUSH2 0x46F JUMP JUMPDEST DUP3 ADD SWAP2 SWAP1 PUSH1 0x0 MSTORE PUSH1 0x20 PUSH1 0x0 KECCAK256 SWAP1 JUMPDEST DUP2 SLOAD DUP2 MSTORE SWAP1 PUSH1 0x1 ADD SWAP1 PUSH1 0x20 ADD DUP1 DUP4 GT PUSH2 0x452 JUMPI DUP3 SWAP1 SUB PUSH1 0x1F AND DUP3 ADD SWAP2 JUMPDEST POP POP POP POP POP DUP2 MSTORE PUSH1 0x20 ADD PUSH1 0x1 DUP3 ADD DUP1 SLOAD PUSH2 0x488 SWAP1 PUSH2 0xDCC JUMP JUMPDEST DUP1 PUSH1 0x1F ADD PUSH1 0x20 DUP1 SWAP2 DIV MUL PUSH1 0x20 ADD PUSH1 0x40 MLOAD SWAP1 DUP2 ADD PUSH1 0x40 MSTORE DUP1 SWAP3 SWAP2 SWAP1 DUP2 DUP2 MSTORE PUSH1 0x20 ADD DUP3 DUP1 SLOAD PUSH2 0x4B4 SWAP1 PUSH2 0xDCC JUMP JUMPDEST DUP1 ISZERO PUSH2 0x501 JUMPI DUP1 PUSH1 0x1F LT PUSH2 0x4D6 JUMPI PUSH2 0x100 DUP1 DUP4 SLOAD DIV MUL DUP4 MSTORE SWAP2 PUSH1 0x20 ADD SWAP2 PUSH2 0x501 JUMP JUMPDEST DUP3 ADD SWAP2 SWAP1 PUSH1 0x0 MSTORE PUSH1 0x20 PUSH1 0x0 KECCAK256 SWAP1 JUMPDEST DUP2 SLOAD DUP2 MSTORE SWAP1 PUSH1 0x1 ADD SWAP1 PUSH1 0x20 ADD DUP1 DUP4 GT PUSH2 0x4E4 JUMPI DUP3 SWAP1 SUB PUSH1 0x1F AND DUP3 ADD SWAP2 JUMPDEST POP POP POP POP POP DUP2 MSTORE POP POP DUP2 MSTORE PUSH1 0x20 ADD SWAP1 PUSH1 0x1 ADD SWAP1 PUSH2 0x3C3 JUMP JUMPDEST POP POP POP POP SWAP1 POP SWAP1 JUMP JUMPDEST PUSH1 0x0 DUP1 PUSH1 0x0 CALLER PUSH20 0xFFFFFFFFFFFFFFFFFFFFFFFFFFFFFFFFFFFFFFFF AND PUSH20 0xFFFFFFFFFFFFFFFFFFFFFFFFFFFFFFFFFFFFFFFF AND DUP2 MSTORE PUSH1 0x20 ADD SWAP1 DUP2 MSTORE PUSH1 0x20 ADD PUSH1 0x0 KECCAK256 DUP1 SLOAD SWAP1 POP SWAP1 POP PUSH1 0x0 JUMPDEST DUP2 DUP2 LT ISZERO PUSH2 0x674 JUMPI DUP4 PUSH1 0x40 MLOAD PUSH1 0x20 ADD PUSH2 0x584 SWAP2 SWAP1 PUSH2 0xD57 JUMP JUMPDEST PUSH1 0x40 MLOAD PUSH1 0x20 DUP2 DUP4 SUB SUB DUP2 MSTORE SWAP1 PUSH1 0x40 MSTORE DUP1 MLOAD SWAP1 PUSH1 0x20 ADD KECCAK256 PUSH1 0x0 DUP1 CALLER PUSH20 0xFFFFFFFFFFFFFFFFFFFFFFFFFFFFFFFFFFFFFFFF AND PUSH20 0xFFFFFFFFFFFFFFFFFFFFFFFFFFFFFFFFFFFFFFFF AND DUP2 MSTORE PUSH1 0x20 ADD SWAP1 DUP2 MSTORE PUSH1 0x20 ADD PUSH1 0x0 KECCAK256 DUP3 DUP2 SLOAD DUP2 LT PUSH2 0x5EA JUMPI PUSH2 0x5E9 PUSH2 0xD6E JUMP JUMPDEST JUMPDEST SWAP1 PUSH1 0x0 MSTORE PUSH1 0x20 PUSH1 0x0 KECCAK256 SWAP1 PUSH1 0x2 MUL ADD PUSH1 0x0 ADD PUSH1 0x40 MLOAD PUSH1 0x20 ADD PUSH2 0x60B SWAP2 SWAP1 PUSH2 0xE95 JUMP JUMPDEST PUSH1 0x40 MLOAD PUSH1 0x20 DUP2 DUP4 SUB SUB DUP2 MSTORE SWAP1 PUSH1 0x40 MSTORE DUP1 MLOAD SWAP1 PUSH1 0x20 ADD KECCAK256 SUB PUSH2 0x661 JUMPI PUSH1 0x40 MLOAD PUSH32 0x8C379A000000000000000000000000000000000000000000000000000000000 DUP2 MSTORE PUSH1 0x4 ADD PUSH2 0x658 SWAP1 PUSH2 0x1282 JUMP JUMPDEST PUSH1 0x40 MLOAD DUP1 SWAP2 SUB SWAP1 REVERT JUMPDEST DUP1 DUP1 PUSH2 0x66C SWAP1 PUSH2 0x11DD JUMP JUMPDEST SWAP2 POP POP PUSH2 0x56B JUMP JUMPDEST POP PUSH1 0x0 DUP1 CALLER PUSH20 0xFFFFFFFFFFFFFFFFFFFFFFFFFFFFFFFFFFFFFFFF AND PUSH20 0xFFFFFFFFFFFFFFFFFFFFFFFFFFFFFFFFFFFFFFFF AND DUP2 MSTORE PUSH1 0x20 ADD SWAP1 DUP2 MSTORE PUSH1 0x20 ADD PUSH1 0x0 KECCAK256 PUSH1 0x40 MLOAD DUP1 PUSH1 0x40 ADD PUSH1 0x40 MSTORE DUP1 DUP6 DUP2 MSTORE PUSH1 0x20 ADD DUP5 DUP2 MSTORE POP SWAP1 DUP1 PUSH1 0x1 DUP2 SLOAD ADD DUP1 DUP3 SSTORE DUP1 SWAP2 POP POP PUSH1 0x1 SWAP1 SUB SWAP1 PUSH1 0x0 MSTORE PUSH1 0x20 PUSH1 0x0 KECCAK256 SWAP1 PUSH1 0x2 MUL ADD PUSH1 0x0 SWAP1 SWAP2 SWAP1 SWAP2 SWAP1 SWAP2 POP PUSH1 0x0 DUP3 ADD MLOAD DUP2 PUSH1 0x0 ADD SWAP1 DUP2 PUSH2 0x706 SWAP2 SWAP1 PUSH2 0x12A2 JUMP JUMPDEST POP PUSH1 0x20 DUP3 ADD MLOAD DUP2 PUSH1 0x1 ADD SWAP1 DUP2 PUSH2 0x71C SWAP2 SWAP1 PUSH2 0x12A2 JUMP JUMPDEST POP POP POP POP POP POP JUMP JUMPDEST PUSH1 0x0 DUP1 PUSH1 0x0 CALLER PUSH20 0xFFFFFFFFFFFFFFFFFFFFFFFFFFFFFFFFFFFFFFFF AND PUSH20 0xFFFFFFFFFFFFFFFFFFFFFFFFFFFFFFFFFFFFFFFF AND DUP2 MSTORE PUSH1 0x20 ADD SWAP1 DUP2 MSTORE PUSH1 0x20 ADD PUSH1 0x0 KECCAK256 DUP1 SLOAD SWAP1 POP SWAP1 POP PUSH1 0x0 JUMPDEST DUP2 DUP2 LT ISZERO PUSH2 0x8B1 JUMPI DUP4 PUSH1 0x40 MLOAD PUSH1 0x20 ADD PUSH2 0x786 SWAP2 SWAP1 PUSH2 0xD57 JUMP JUMPDEST PUSH1 0x40 MLOAD PUSH1 0x20 DUP2 DUP4 SUB SUB DUP2 MSTORE SWAP1 PUSH1 0x40 MSTORE DUP1 MLOAD SWAP1 PUSH1 0x20 ADD KECCAK256 PUSH1 0x0 DUP1 CALLER PUSH20 0xFFFFFFFFFFFFFFFFFFFFFFFFFFFFFFFFFFFFFFFF AND PUSH20 0xFFFFFFFFFFFFFFFFFFFFFFFFFFFFFFFFFFFFFFFF AND DUP2 MSTORE PUSH1 0x20 ADD SWAP1 DUP2 MSTORE PUSH1 0x20 ADD PUSH1 0x0 KECCAK256 DUP3 DUP2 SLOAD DUP2 LT PUSH2 0x7EC JUMPI PUSH2 0x7EB PUSH2 0xD6E JUMP JUMPDEST JUMPDEST SWAP1 PUSH1 0x0 MSTORE PUSH1 0x20 PUSH1 0x0 KECCAK256 SWAP1 PUSH1 0x2 MUL ADD PUSH1 0x0 ADD PUSH1 0x40 MLOAD PUSH1 0x20 ADD PUSH2 0x80D SWAP2 SWAP1 PUSH2 0xE95 JUMP JUMPDEST PUSH1 0x40 MLOAD PUSH1 0x20 DUP2 DUP4 SUB SUB DUP2 MSTORE SWAP1 PUSH1 0x40 MSTORE DUP1 MLOAD SWAP1 PUSH1 0x20 ADD KECCAK256 SUB PUSH2 0x89E JUMPI DUP3 PUSH1 0x0 DUP1 CALLER PUSH20 0xFFFFFFFFFFFFFFFFFFFFFFFFFFFFFFFFFFFFFFFF AND PUSH20 0xFFFFFFFFFFFFFFFFFFFFFFFFFFFFFFFFFFFFFFFF AND DUP2 MSTORE PUSH1 0x20 ADD SWAP1 DUP2 MSTORE PUSH1 0x20 ADD PUSH1 0x0 KECCAK256 DUP3 DUP2 SLOAD DUP2 LT PUSH2 0x879 JUMPI PUSH2 0x878 PUSH2 0xD6E JUMP JUMPDEST JUMPDEST SWAP1 PUSH1 0x0 MSTORE PUSH1 0x20 PUSH1 0x0 KECCAK256 SWAP1 PUSH1 0x2 MUL ADD PUSH1 0x1 ADD SWAP1 DUP2 PUSH2 0x896 SWAP2 SWAP1 PUSH2 0x12A2 JUMP JUMPDEST POP POP POP PUSH2 0x8F8 JUMP JUMPDEST DUP1 DUP1 PUSH2 0x8A9 SWAP1 PUSH2 0x11DD JUMP JUMPDEST SWAP2 POP POP PUSH2 0x76D JUMP JUMPDEST POP PUSH1 0x0 PUSH1 0x1 EQ PUSH2 0x8F6 JUMPI PUSH1 0x40 MLOAD PUSH32 0x8C379A000000000000000000000000000000000000000000000000000000000 DUP2 MSTORE PUSH1 0x4 ADD PUSH2 0x8ED SWAP1 PUSH2 0x13C0 JUMP JUMPDEST PUSH1 0x40 MLOAD DUP1 SWAP2 SUB SWAP1 REVERT JUMPDEST POP JUMPDEST POP POP JUMP JUMPDEST POP DUP1 SLOAD PUSH2 0x908 SWAP1 PUSH2 0xDCC JUMP JUMPDEST PUSH1 0x0 DUP3 SSTORE DUP1 PUSH1 0x1F LT PUSH2 0x91A JUMPI POP PUSH2 0x939 JUMP JUMPDEST PUSH1 0x1F ADD PUSH1 0x20 SWAP1 DIV SWAP1 PUSH1 0x0 MSTORE PUSH1 0x20 PUSH1 0x0 KECCAK256 SWAP1 DUP2 ADD SWAP1 PUSH2 0x938 SWAP2 SWAP1 PUSH2 0x93C JUMP JUMPDEST JUMPDEST POP JUMP JUMPDEST JUMPDEST DUP1 DUP3 GT ISZERO PUSH2 0x955 JUMPI PUSH1 0x0 DUP2 PUSH1 0x0 SWAP1 SSTORE POP PUSH1 0x1 ADD PUSH2 0x93D JUMP JUMPDEST POP SWAP1 JUMP JUMPDEST PUSH1 0x0 PUSH1 0x40 MLOAD SWAP1 POP SWAP1 JUMP JUMPDEST PUSH1 0x0 DUP1 REVERT JUMPDEST PUSH1 0x0 DUP1 REVERT JUMPDEST PUSH1 0x0 DUP1 REVERT JUMPDEST PUSH1 0x0 DUP1 REVERT JUMPDEST PUSH1 0x0 PUSH1 0x1F NOT PUSH1 0x1F DUP4 ADD AND SWAP1 POP SWAP2 SWAP1 POP JUMP JUMPDEST PUSH32 0x4E487B7100000000000000000000000000000000000000000000000000000000 PUSH1 0x0 MSTORE PUSH1 0x41 PUSH1 0x4 MSTORE PUSH1 0x24 PUSH1 0x0 REVERT JUMPDEST PUSH2 0x9C0 DUP3 PUSH2 0x977 JUMP JUMPDEST DUP2 ADD DUP2 DUP2 LT PUSH8 0xFFFFFFFFFFFFFFFF DUP3 GT OR ISZERO PUSH2 0x9DF JUMPI PUSH2 0x9DE PUSH2 0x988 JUMP JUMPDEST JUMPDEST DUP1 PUSH1 0x40 MSTORE POP POP POP JUMP JUMPDEST PUSH1 0x0 PUSH2 0x9F2 PUSH2 0x959 JUMP JUMPDEST SWAP1 POP PUSH2 0x9FE DUP3 DUP3 PUSH2 0x9B7 JUMP JUMPDEST SWAP2 SWAP1 POP JUMP JUMPDEST PUSH1 0x0 PUSH8 0xFFFFFFFFFFFFFFFF DUP3 GT ISZERO PUSH2 0xA1E JUMPI PUSH2 0xA1D PUSH2 0x988 JUMP JUMPDEST JUMPDEST PUSH2 0xA27 DUP3 PUSH2 0x977 JUMP JUMPDEST SWAP1 POP PUSH1 0x20 DUP2 ADD SWAP1 POP SWAP2 SWAP1 POP JUMP JUMPDEST DUP3 DUP2 DUP4 CALLDATACOPY PUSH1 0x0 DUP4 DUP4 ADD MSTORE POP POP POP JUMP JUMPDEST PUSH1 0x0 PUSH2 0xA56 PUSH2 0xA51 DUP5 PUSH2 0xA03 JUMP JUMPDEST PUSH2 0x9E8 JUMP JUMPDEST SWAP1 POP DUP3 DUP2 MSTORE PUSH1 0x20 DUP2 ADD DUP5 DUP5 DUP5 ADD GT ISZERO PUSH2 0xA72 JUMPI PUSH2 0xA71 PUSH2 0x972 JUMP JUMPDEST JUMPDEST PUSH2 0xA7D DUP5 DUP3 DUP6 PUSH2 0xA34 JUMP JUMPDEST POP SWAP4 SWAP3 POP POP POP JUMP JUMPDEST PUSH1 0x0 DUP3 PUSH1 0x1F DUP4 ADD SLT PUSH2 0xA9A JUMPI PUSH2 0xA99 PUSH2 0x96D JUMP JUMPDEST JUMPDEST DUP2 CALLDATALOAD PUSH2 0xAAA DUP5 DUP3 PUSH1 0x20 DUP7 ADD PUSH2 0xA43 JUMP JUMPDEST SWAP2 POP POP SWAP3 SWAP2 POP POP JUMP JUMPDEST PUSH1 0x0 PUSH1 0x20 DUP3 DUP5 SUB SLT ISZERO PUSH2 0xAC9 JUMPI PUSH2 0xAC8 PUSH2 0x963 JUMP JUMPDEST JUMPDEST PUSH1 0x0 DUP3 ADD CALLDATALOAD PUSH8 0xFFFFFFFFFFFFFFFF DUP2 GT ISZERO PUSH2 0xAE7 JUMPI PUSH2 0xAE6 PUSH2 0x968 JUMP JUMPDEST JUMPDEST PUSH2 0xAF3 DUP5 DUP3 DUP6 ADD PUSH2 0xA85 JUMP JUMPDEST SWAP2 POP POP SWAP3 SWAP2 POP POP JUMP JUMPDEST PUSH1 0x0 DUP2 MLOAD SWAP1 POP SWAP2 SWAP1 POP JUMP JUMPDEST PUSH1 0x0 DUP3 DUP3 MSTORE PUSH1 0x20 DUP3 ADD SWAP1 POP SWAP3 SWAP2 POP POP JUMP JUMPDEST PUSH1 0x0 DUP2 SWAP1 POP PUSH1 0x20 DUP3 ADD SWAP1 POP SWAP2 SWAP1 POP JUMP JUMPDEST PUSH1 0x0 DUP2 MLOAD SWAP1 POP SWAP2 SWAP1 POP JUMP JUMPDEST PUSH1 0x0 DUP3 DUP3 MSTORE PUSH1 0x20 DUP3 ADD SWAP1 POP SWAP3 SWAP2 POP POP JUMP JUMPDEST PUSH1 0x0 JUMPDEST DUP4 DUP2 LT ISZERO PUSH2 0xB62 JUMPI DUP1 DUP3 ADD MLOAD DUP2 DUP5 ADD MSTORE PUSH1 0x20 DUP2 ADD SWAP1 POP PUSH2 0xB47 JUMP JUMPDEST PUSH1 0x0 DUP5 DUP5 ADD MSTORE POP POP POP POP JUMP JUMPDEST PUSH1 0x0 PUSH2 0xB79 DUP3 PUSH2 0xB28 JUMP JUMPDEST PUSH2 0xB83 DUP2 DUP6 PUSH2 0xB33 JUMP JUMPDEST SWAP4 POP PUSH2 0xB93 DUP2 DUP6 PUSH1 0x20 DUP7 ADD PUSH2 0xB44 JUMP JUMPDEST PUSH2 0xB9C DUP2 PUSH2 0x977 JUMP JUMPDEST DUP5 ADD SWAP2 POP POP SWAP3 SWAP2 POP POP JUMP JUMPDEST PUSH1 0x0 PUSH1 0x40 DUP4 ADD PUSH1 0x0 DUP4 ADD MLOAD DUP5 DUP3 SUB PUSH1 0x0 DUP7 ADD MSTORE PUSH2 0xBC4 DUP3 DUP3 PUSH2 0xB6E JUMP JUMPDEST SWAP2 POP POP PUSH1 0x20 DUP4 ADD MLOAD DUP5 DUP3 SUB PUSH1 0x20 DUP7 ADD MSTORE PUSH2 0xBDE DUP3 DUP3 PUSH2 0xB6E JUMP JUMPDEST SWAP2 POP POP DUP1 SWAP2 POP POP SWAP3 SWAP2 POP POP JUMP JUMPDEST PUSH1 0x0 PUSH2 0xBF7 DUP4 DUP4 PUSH2 0xBA7 JUMP JUMPDEST SWAP1 POP SWAP3 SWAP2 POP POP JUMP JUMPDEST PUSH1 0x0 PUSH1 0x20 DUP3 ADD SWAP1 POP SWAP2 SWAP1 POP JUMP JUMPDEST PUSH1 0x0 PUSH2 0xC17 DUP3 PUSH2 0xAFC JUMP JUMPDEST PUSH2 0xC21 DUP2 DUP6 PUSH2 0xB07 JUMP JUMPDEST SWAP4 POP DUP4 PUSH1 0x20 DUP3 MUL DUP6 ADD PUSH2 0xC33 DUP6 PUSH2 0xB18 JUMP JUMPDEST DUP1 PUSH1 0x0 JUMPDEST DUP6 DUP2 LT ISZERO PUSH2 0xC6F JUMPI DUP5 DUP5 SUB DUP10 MSTORE DUP2 MLOAD PUSH2 0xC50 DUP6 DUP3 PUSH2 0xBEB JUMP JUMPDEST SWAP5 POP PUSH2 0xC5B DUP4 PUSH2 0xBFF JUMP JUMPDEST SWAP3 POP PUSH1 0x20 DUP11 ADD SWAP10 POP POP PUSH1 0x1 DUP2 ADD SWAP1 POP PUSH2 0xC37 JUMP JUMPDEST POP DUP3 SWAP8 POP DUP8 SWAP6 POP POP POP POP POP POP SWAP3 SWAP2 POP POP JUMP JUMPDEST PUSH1 0x0 PUSH1 0x20 DUP3 ADD SWAP1 POP DUP2 DUP2 SUB PUSH1 0x0 DUP4 ADD MSTORE PUSH2 0xC9B DUP2 DUP5 PUSH2 0xC0C JUMP JUMPDEST SWAP1 POP SWAP3 SWAP2 POP POP JUMP JUMPDEST PUSH1 0x0 DUP1 PUSH1 0x40 DUP4 DUP6 SUB SLT ISZERO PUSH2 0xCBA JUMPI PUSH2 0xCB9 PUSH2 0x963 JUMP JUMPDEST JUMPDEST PUSH1 0x0 DUP4 ADD CALLDATALOAD PUSH8 0xFFFFFFFFFFFFFFFF DUP2 GT ISZERO PUSH2 0xCD8 JUMPI PUSH2 0xCD7 PUSH2 0x968 JUMP JUMPDEST JUMPDEST PUSH2 0xCE4 DUP6 DUP3 DUP7 ADD PUSH2 0xA85 JUMP JUMPDEST SWAP3 POP POP PUSH1 0x20 DUP4 ADD CALLDATALOAD PUSH8 0xFFFFFFFFFFFFFFFF DUP2 GT ISZERO PUSH2 0xD05 JUMPI PUSH2 0xD04 PUSH2 0x968 JUMP JUMPDEST JUMPDEST PUSH2 0xD11 DUP6 DUP3 DUP7 ADD PUSH2 0xA85 JUMP JUMPDEST SWAP2 POP POP SWAP3 POP SWAP3 SWAP1 POP JUMP JUMPDEST PUSH1 0x0 DUP2 SWAP1 POP SWAP3 SWAP2 POP POP JUMP JUMPDEST PUSH1 0x0 PUSH2 0xD31 DUP3 PUSH2 0xB28 JUMP JUMPDEST PUSH2 0xD3B DUP2 DUP6 PUSH2 0xD1B JUMP JUMPDEST SWAP4 POP PUSH2 0xD4B DUP2 DUP6 PUSH1 0x20 DUP7 ADD PUSH2 0xB44 JUMP JUMPDEST DUP1 DUP5 ADD SWAP2 POP POP SWAP3 SWAP2 POP POP JUMP JUMPDEST PUSH1 0x0 PUSH2 0xD63 DUP3 DUP5 PUSH2 0xD26 JUMP JUMPDEST SWAP2 POP DUP2 SWAP1 POP SWAP3 SWAP2 POP POP JUMP JUMPDEST PUSH32 0x4E487B7100000000000000000000000000000000000000000000000000000000 PUSH1 0x0 MSTORE PUSH1 0x32 PUSH1 0x4 MSTORE PUSH1 0x24 PUSH1 0x0 REVERT JUMPDEST PUSH32 0x4E487B7100000000000000000000000000000000000000000000000000000000 PUSH1 0x0 MSTORE PUSH1 0x22 PUSH1 0x4 MSTORE PUSH1 0x24 PUSH1 0x0 REVERT JUMPDEST PUSH1 0x0 PUSH1 0x2 DUP3 DIV SWAP1 POP PUSH1 0x1 DUP3 AND DUP1 PUSH2 0xDE4 JUMPI PUSH1 0x7F DUP3 AND SWAP2 POP JUMPDEST PUSH1 0x20 DUP3 LT DUP2 SUB PUSH2 0xDF7 JUMPI PUSH2 0xDF6 PUSH2 0xD9D JUMP JUMPDEST JUMPDEST POP SWAP2 SWAP1 POP JUMP JUMPDEST PUSH1 0x0 DUP2 SWAP1 POP DUP2 PUSH1 0x0 MSTORE PUSH1 0x20 PUSH1 0x0 KECCAK256 SWAP1 POP SWAP2 SWAP1 POP JUMP JUMPDEST PUSH1 0x0 DUP2 SLOAD PUSH2 0xE1F DUP2 PUSH2 0xDCC JUMP JUMPDEST PUSH2 0xE29 DUP2 DUP7 PUSH2 0xD1B JUMP JUMPDEST SWAP5 POP PUSH1 0x1 DUP3 AND PUSH1 0x0 DUP2 EQ PUSH2 0xE44 JUMPI PUSH1 0x1 DUP2 EQ PUSH2 0xE59 JUMPI PUSH2 0xE8C JUMP JUMPDEST PUSH1 0xFF NOT DUP4 AND DUP7 MSTORE DUP2 ISZERO ISZERO DUP3 MUL DUP7 ADD SWAP4 POP PUSH2 0xE8C JUMP JUMPDEST PUSH2 0xE62 DUP6 PUSH2 0xDFD JUMP JUMPDEST PUSH1 0x0 JUMPDEST DUP4 DUP2 LT ISZERO PUSH2 0xE84 JUMPI DUP2 SLOAD DUP2 DUP10 ADD MSTORE PUSH1 0x1 DUP3 ADD SWAP2 POP PUSH1 0x20 DUP2 ADD SWAP1 POP PUSH2 0xE65 JUMP JUMPDEST DUP4 DUP9 ADD SWAP6 POP POP POP JUMPDEST POP POP POP SWAP3 SWAP2 POP POP JUMP JUMPDEST PUSH1 0x0 PUSH2 0xEA1 DUP3 DUP5 PUSH2 0xE12 JUMP JUMPDEST SWAP2 POP DUP2 SWAP1 POP SWAP3 SWAP2 POP POP JUMP JUMPDEST PUSH1 0x0 DUP2 SWAP1 POP SWAP2 SWAP1 POP JUMP JUMPDEST PUSH32 0x4E487B7100000000000000000000000000000000000000000000000000000000 PUSH1 0x0 MSTORE PUSH1 0x11 PUSH1 0x4 MSTORE PUSH1 0x24 PUSH1 0x0 REVERT JUMPDEST PUSH1 0x0 PUSH2 0xEF0 DUP3 PUSH2 0xEAC JUMP JUMPDEST SWAP2 POP PUSH2 0xEFB DUP4 PUSH2 0xEAC JUMP JUMPDEST SWAP3 POP DUP3 DUP3 SUB SWAP1 POP DUP2 DUP2 GT ISZERO PUSH2 0xF13 JUMPI PUSH2 0xF12 PUSH2 0xEB6 JUMP JUMPDEST JUMPDEST SWAP3 SWAP2 POP POP JUMP JUMPDEST PUSH1 0x0 DUP2 SLOAD SWAP1 POP PUSH2 0xF28 DUP2 PUSH2 0xDCC JUMP JUMPDEST SWAP1 POP SWAP2 SWAP1 POP JUMP JUMPDEST PUSH1 0x0 PUSH1 0x20 PUSH1 0x1F DUP4 ADD DIV SWAP1 POP SWAP2 SWAP1 POP JUMP JUMPDEST PUSH1 0x0 DUP3 DUP3 SHL SWAP1 POP SWAP3 SWAP2 POP POP JUMP JUMPDEST PUSH1 0x0 PUSH1 0x8 DUP4 MUL PUSH2 0xF7C PUSH32 0xFFFFFFFFFFFFFFFFFFFFFFFFFFFFFFFFFFFFFFFFFFFFFFFFFFFFFFFFFFFFFFFF DUP3 PUSH2 0xF3F JUMP JUMPDEST PUSH2 0xF86 DUP7 DUP4 PUSH2 0xF3F JUMP JUMPDEST SWAP6 POP DUP1 NOT DUP5 AND SWAP4 POP DUP1 DUP7 AND DUP5 OR SWAP3 POP POP POP SWAP4 SWAP3 POP POP POP JUMP JUMPDEST PUSH1 0x0 DUP2 SWAP1 POP SWAP2 SWAP1 POP JUMP JUMPDEST PUSH1 0x0 PUSH2 0xFC3 PUSH2 0xFBE PUSH2 0xFB9 DUP5 PUSH2 0xEAC JUMP JUMPDEST PUSH2 0xF9E JUMP JUMPDEST PUSH2 0xEAC JUMP JUMPDEST SWAP1 POP SWAP2 SWAP1 POP JUMP JUMPDEST PUSH1 0x0 DUP2 SWAP1 POP SWAP2 SWAP1 POP JUMP JUMPDEST PUSH2 0xFDD DUP4 PUSH2 0xFA8 JUMP JUMPDEST PUSH2 0xFF1 PUSH2 0xFE9 DUP3 PUSH2 0xFCA JUMP JUMPDEST DUP5 DUP5 SLOAD PUSH2 0xF4C JUMP JUMPDEST DUP3 SSTORE POP POP POP POP JUMP JUMPDEST PUSH1 0x0 SWAP1 JUMP JUMPDEST PUSH2 0x1006 PUSH2 0xFF9 JUMP JUMPDEST PUSH2 0x1011 DUP2 DUP5 DUP5 PUSH2 0xFD4 JUMP JUMPDEST POP POP POP JUMP JUMPDEST JUMPDEST DUP2 DUP2 LT ISZERO PUSH2 0x1035 JUMPI PUSH2 0x102A PUSH1 0x0 DUP3 PUSH2 0xFFE JUMP JUMPDEST PUSH1 0x1 DUP2 ADD SWAP1 POP PUSH2 0x1017 JUMP JUMPDEST POP POP JUMP JUMPDEST PUSH1 0x1F DUP3 GT ISZERO PUSH2 0x107A JUMPI PUSH2 0x104B DUP2 PUSH2 0xDFD JUMP JUMPDEST PUSH2 0x1054 DUP5 PUSH2 0xF2F JUMP JUMPDEST DUP2 ADD PUSH1 0x20 DUP6 LT ISZERO PUSH2 0x1063 JUMPI DUP2 SWAP1 POP JUMPDEST PUSH2 0x1077 PUSH2 0x106F DUP6 PUSH2 0xF2F JUMP JUMPDEST DUP4 ADD DUP3 PUSH2 0x1016 JUMP JUMPDEST POP POP JUMPDEST POP POP POP JUMP JUMPDEST PUSH1 0x0 DUP3 DUP3 SHR SWAP1 POP SWAP3 SWAP2 POP POP JUMP JUMPDEST PUSH1 0x0 PUSH2 0x109D PUSH1 0x0 NOT DUP5 PUSH1 0x8 MUL PUSH2 0x107F JUMP JUMPDEST NOT DUP1 DUP4 AND SWAP2 POP POP SWAP3 SWAP2 POP POP JUMP JUMPDEST PUSH1 0x0 PUSH2 0x10B6 DUP4 DUP4 PUSH2 0x108C JUMP JUMPDEST SWAP2 POP DUP3 PUSH1 0x2 MUL DUP3 OR SWAP1 POP SWAP3 SWAP2 POP POP JUMP JUMPDEST DUP2 DUP2 SUB PUSH2 0x10D4 JUMPI POP POP PUSH2 0x11AC JUMP JUMPDEST PUSH2 0x10DD DUP3 PUSH2 0xF19 JUMP JUMPDEST PUSH8 0xFFFFFFFFFFFFFFFF DUP2 GT ISZERO PUSH2 0x10F6 JUMPI PUSH2 0x10F5 PUSH2 0x988 JUMP JUMPDEST JUMPDEST PUSH2 0x1100 DUP3 SLOAD PUSH2 0xDCC JUMP JUMPDEST PUSH2 0x110B DUP3 DUP3 DUP6 PUSH2 0x1039 JUMP JUMPDEST PUSH1 0x0 PUSH1 0x1F DUP4 GT PUSH1 0x1 DUP2 EQ PUSH2 0x113A JUMPI PUSH1 0x0 DUP5 ISZERO PUSH2 0x1128 JUMPI DUP3 DUP8 ADD SLOAD SWAP1 POP JUMPDEST PUSH2 0x1132 DUP6 DUP3 PUSH2 0x10AA JUMP JUMPDEST DUP7 SSTORE POP PUSH2 0x11A5 JUMP JUMPDEST PUSH1 0x1F NOT DUP5 AND PUSH2 0x1148 DUP8 PUSH2 0xDFD JUMP JUMPDEST SWAP7 POP PUSH2 0x1153 DUP7 PUSH2 0xDFD JUMP JUMPDEST PUSH1 0x0 JUMPDEST DUP3 DUP2 LT ISZERO PUSH2 0x117B JUMPI DUP5 DUP10 ADD SLOAD DUP3 SSTORE PUSH1 0x1 DUP3 ADD SWAP2 POP PUSH1 0x1 DUP6 ADD SWAP5 POP PUSH1 0x20 DUP2 ADD SWAP1 POP PUSH2 0x1156 JUMP JUMPDEST DUP7 DUP4 LT ISZERO PUSH2 0x1198 JUMPI DUP5 DUP10 ADD SLOAD PUSH2 0x1194 PUSH1 0x1F DUP10 AND DUP3 PUSH2 0x108C JUMP JUMPDEST DUP4 SSTORE POP JUMPDEST PUSH1 0x1 PUSH1 0x2 DUP9 MUL ADD DUP9 SSTORE POP POP POP JUMPDEST POP POP POP POP POP POP JUMPDEST JUMP JUMPDEST PUSH32 0x4E487B7100000000000000000000000000000000000000000000000000000000 PUSH1 0x0 MSTORE PUSH1 0x31 PUSH1 0x4 MSTORE PUSH1 0x24 PUSH1 0x0 REVERT JUMPDEST PUSH1 0x0 PUSH2 0x11E8 DUP3 PUSH2 0xEAC JUMP JUMPDEST SWAP2 POP PUSH32 0xFFFFFFFFFFFFFFFFFFFFFFFFFFFFFFFFFFFFFFFFFFFFFFFFFFFFFFFFFFFFFFFF DUP3 SUB PUSH2 0x121A JUMPI PUSH2 0x1219 PUSH2 0xEB6 JUMP JUMPDEST JUMPDEST PUSH1 0x1 DUP3 ADD SWAP1 POP SWAP2 SWAP1 POP JUMP JUMPDEST PUSH1 0x0 DUP3 DUP3 MSTORE PUSH1 0x20 DUP3 ADD SWAP1 POP SWAP3 SWAP2 POP POP JUMP JUMPDEST PUSH32 0x4B657920616C72656164792070726573656E7400000000000000000000000000 PUSH1 0x0 DUP3 ADD MSTORE POP JUMP JUMPDEST PUSH1 0x0 PUSH2 0x126C PUSH1 0x13 DUP4 PUSH2 0x1225 JUMP JUMPDEST SWAP2 POP PUSH2 0x1277 DUP3 PUSH2 0x1236 JUMP JUMPDEST PUSH1 0x20 DUP3 ADD SWAP1 POP SWAP2 SWAP1 POP JUMP JUMPDEST PUSH1 0x0 PUSH1 0x20 DUP3 ADD SWAP1 POP DUP2 DUP2 SUB PUSH1 0x0 DUP4 ADD MSTORE PUSH2 0x129B DUP2 PUSH2 0x125F JUMP JUMPDEST SWAP1 POP SWAP2 SWAP1 POP JUMP JUMPDEST PUSH2 0x12AB DUP3 PUSH2 0xB28 JUMP JUMPDEST PUSH8 0xFFFFFFFFFFFFFFFF DUP2 GT ISZERO PUSH2 0x12C4 JUMPI PUSH2 0x12C3 PUSH2 0x988 JUMP JUMPDEST JUMPDEST PUSH2 0x12CE DUP3 SLOAD PUSH2 0xDCC JUMP JUMPDEST PUSH2 0x12D9 DUP3 DUP3 DUP6 PUSH2 0x1039 JUMP JUMPDEST PUSH1 0x0 PUSH1 0x20 SWAP1 POP PUSH1 0x1F DUP4 GT PUSH1 0x1 DUP2 EQ PUSH2 0x130C JUMPI PUSH1 0x0 DUP5 ISZERO PUSH2 0x12FA JUMPI DUP3 DUP8 ADD MLOAD SWAP1 POP JUMPDEST PUSH2 0x1304 DUP6 DUP3 PUSH2 0x10AA JUMP JUMPDEST DUP7 SSTORE POP PUSH2 0x136C JUMP JUMPDEST PUSH1 0x1F NOT DUP5 AND PUSH2 0x131A DUP7 PUSH2 0xDFD JUMP JUMPDEST PUSH1 0x0 JUMPDEST DUP3 DUP2 LT ISZERO PUSH2 0x1342 JUMPI DUP5 DUP10 ADD MLOAD DUP3 SSTORE PUSH1 0x1 DUP3 ADD SWAP2 POP PUSH1 0x20 DUP6 ADD SWAP5 POP PUSH1 0x20 DUP2 ADD SWAP1 POP PUSH2 0x131D JUMP JUMPDEST DUP7 DUP4 LT ISZERO PUSH2 0x135F JUMPI DUP5 DUP10 ADD MLOAD PUSH2 0x135B PUSH1 0x1F DUP10 AND DUP3 PUSH2 0x108C JUMP JUMPDEST DUP4 SSTORE POP JUMPDEST PUSH1 0x1 PUSH1 0x2 DUP9 MUL ADD DUP9 SSTORE POP POP POP JUMPDEST POP POP POP POP POP POP JUMP JUMPDEST PUSH32 0x4E6F206B657920666F756E640000000000000000000000000000000000000000 PUSH1 0x0 DUP3 ADD MSTORE POP JUMP JUMPDEST PUSH1 0x0 PUSH2 0x13AA PUSH1 0xC DUP4 PUSH2 0x1225 JUMP JUMPDEST SWAP2 POP PUSH2 0x13B5 DUP3 PUSH2 0x1374 JUMP JUMPDEST PUSH1 0x20 DUP3 ADD SWAP1 POP SWAP2 SWAP1 POP JUMP JUMPDEST PUSH1 0x0 PUSH1 0x20 DUP3 ADD SWAP1 POP DUP2 DUP2 SUB PUSH1 0x0 DUP4 ADD MSTORE PUSH2 0x13D9 DUP2 PUSH2 0x139D JUMP JUMPDEST SWAP1 POP SWAP2 SWAP1 POP JUMP INVALID LOG2 PUSH5 0x6970667358 0x22 SLT KECCAK256 0x49 0xE2 CALLDATALOAD STOP 0xE1 SLOAD DUP1 DUP16 POP 0x22 AND 0xAE 0x4B AND SDIV PUSH21 0x40D49B9BD2978786683ECAFC4497680964736F6C63 NUMBER STOP ADDMOD GT STOP CALLER "},"methodIdentifiers":{"createNewKey(string,string)":"ba869077","deleteKey(string)":"3350fe42","getMyPassword()":"57a1a363","updateKey(string,string)":"fbececac"}}}}}